:020000040800F2
:1000000000040020CD010008412000084320000822
:10001000472000084B2000084F2000080000000087
:100020000000000000000000000000005320000855
:100030005520000800000000572000085920000843
:10004000ED010008ED010008ED010008ED010008D8
:10005000ED010008ED010008ED010008ED010008C8
:10006000ED010008ED010008ED010008ED010008B8
:10007000ED010008ED010008ED010008ED010008A8
:10008000ED010008ED010008ED010008ED01000898
:10009000ED010008ED010008ED010008ED01000888
:1000A000ED010008ED010008ED010008ED01000878
:1000B000ED0100086120000869200008ED0100083A
:1000C000ED010008ED010008ED010008ED01000858
:1000D000ED010008ED010008ED010008ED01000848
:1000E000ED010008ED010008ED010008ED01000838
:1000F000ED010008ED010008ED010008ED01000828
:10010000ED010008ED010008ED010008ED01000817
:10011000ED010008ED010008ED010008ED01000807
:10012000ED010008ED010008ED010008ED010008F7
:1001300000F002F800F03AF80AA090E8000C8244BF
:100140008344AAF10107DA4501D100F02FF8AFF29C
:10015000090EBAE80F0013F0010F18BFFB1A43F0A5
:1001600001031847602B0000802B0000103A24BFC9
:1001700078C878C1FAD8520724BF30C830C144BF0C
:1001800004680C607047000000230024002500264E
:10019000103A28BF78C1FBD8520728BF30C148BFEA
:1001A0000B6070471FB51FBD10B510BD02F0BDFA42
:1001B0001146FFF7F7FF01F096FE02F0DBFA03B4F9
:1001C000FFF7F2FF03BC02F0DFFA00000B488047A4
:1001D0000B4880F308880B480047FEE7FEE7FEE780
:1001E000FEE7FEE7FEE7FEE7FEE7FEE7FEE70000CC
:1001F00005480649064A074B704700004F21000892
:10020000A806002031010008A8000020A806002050
:10021000A8020020A802002031490143314A1160A0
:10022000704770B5002100230F22C47804B32D4C11
:10023000246804F4E064C4F5E064210AC1F1040315
:10024000CA40447804FA03F1847814402143090138
:10025000254C0678A155047804F01F050124AC4014
:1002600005786D11AD0005F1E025C5F8004109E004
:10027000047804F01F050124AC401C4D067876116B
:1002800045F8264070BD1A4A0A400243154B1B1F11
:100290001A60704739B1134A121D12680243114B9C
:1002A0001B1D1A6006E00F4A121D126882430D4B97
:1002B0001B1D1A607047042808D14FF0E02109691E
:1002C00041F004014FF0E022116107E04FF0E0211E
:1002D000096921F004014FF0E0221161704700002C
:1002E0000000FA050CED00E000E400E080E100E031
:1002F00080FFFF1F002044490860091D0860091D98
:100300000860091D086041483F4914310860704782
:1003100000213D498279002A3AD00A4612680368D2
:100320009A430B461A600A1D126803689A430B1D14
:100330001A60027911440A6803681A430A60324A53
:100340000832126803689A432F4B08331A601A1D4B
:10035000126803689A432C4B0C331A604279102AB6
:100360000ED11A1F126803681A43274B08331A600C
:100370001A1D126803681A43234B0C331A600DE0F0
:100380002149427911440A6803681A430A6005E06A
:10039000027911440A6803689A430A607047002191
:1003A000016001710C214171002181717047164972
:1003B000103109680143144A103211607047014638
:1003C0000020114A143212680A400AB1012000E0EC
:1003D000002070470C491431086070470146002026
:1003E0000022094B1B6803EA0102074B14331B6808
:1003F0000B4013B10AB1012000E000207047024910
:10040000143108607047000000040140FFFF0F0036
:1004100001460020FE4A106800F0380008431060D2
:100420007047FB49096821F00801F94A116011463B
:100430000968014311607047F549096821F010010E
:10044000F34A116011460968014311607047F14891
:10045000EF494860F04848607047EE48EC49486012
:10046000ED4848607047EA48006940F08000E8497C
:1004700008617047E648006940F08000E44908617F
:1004800070470420E249C96801F0010109B1012067
:100490000EE0DF49C96801F0040109B1022007E05C
:1004A000DB49C96801F0100109B1032000E0042014
:1004B000704700B502460423FFF7E3FF034603E05D
:1004C000FFF7DFFF0346521E012B01D1002AF7D1AF
:1004D00002B90523184600BD30B5044604254FF483
:1004E0003020FFF7E6FF0546042D17D1C848006904
:1004F00040F00200C649086108464461006940F0C6
:10050000400008614FF43020FFF7D3FF0546C04894
:10051000006941F6FD710840BD490861284630BDBB
:1005200010B504244FF43020FFF7C3FF0446042C19
:1005300016D1B748006940F00400B5490861084683
:10054000006940F0400008614FF43020FFF7B1FF30
:100550000446AF48006941F6FB710840AC490861A8
:10056000204610BD00B502460423FFF78AFF03466C
:1005700003E0FFF786FF0346521E012B01D1002A3C
:10058000F7D102B90523184600BD10B504244FF475
:100590003020FFF7E7FF0446042C16D19C48006981
:1005A00040F004009A4908610846006940F04000A4
:1005B00008614FF43020FFF7D5FF044694480069E6
:1005C00041F6FB71084092490861204610BD0020A9
:1005D0008F49C96901F0020109B1012000E0002042
:1005E000704730B5A5250424FFF7F1FF00B10025C1
:1005F0004FF43020FFF75DFF0446042C3AD18548C4
:1006000083498860844888600846006940F020007B
:1006100008610846006940F0400008614FF430204E
:10062000FFF747FF0446042C1BD17948006941F6C7
:10063000DF710840764908610846006940F0100003
:10064000086176480580E002FFF733FF0446052C79
:1006500010D06F48006941F6EF7108406C4908619D
:1006600008E0052C06D06A48006941F6EF710840A1
:1006700067490861204630BD78B506460C4604251A
:1006800000200090E802FFF714FF0546042D24D156
:100690005F48006940F001005D4908613480E8026C
:1006A000FFF707FF0546042D10D1B01C0090200C69
:1006B00000990880E802FFF7FCFE054654480069EF
:1006C00041F6FE7108405249086106E05048006951
:1006D00041F6FE7108404E490861284678BD70B564
:1006E00004460D460426F002FFF7E3FE0646042EFC
:1006F00011D14748006940F0010045490861258053
:10070000F002FFF7D6FE06464148006941F6FE7149
:1007100008403F490861304670BD70B505460E4639
:100720000424E002FFF7C5FE0446042C17D1394823
:1007300037498860384888600846006940F01000F2
:1007400008612E80E002FFF7B4FE0446052C06D0B7
:100750002F48006941F6EF7108402D490861204695
:1007600070BD2DE9F04304464FF6FF763746B0469C
:10077000B1460425E443E6B2C4F30727C4F30748AF
:100780004FEA1469E802FFF794FE0546042D49D1AB
:1007900020481F498860204888600846006940F06A
:1007A00010000861FF2E06D01C4808300680E802C1
:1007B000FFF77FFE0546042D08D1FF2F06D017480E
:1007C0000A300780E802FFF774FE0546042D0AD1BF
:1007D000B8F1FF0F07D011480C30A0F80080E802F4
:1007E000FFF767FE0546042D0AD1B9F1FF0F07D0C8
:1007F0000A480E30A0F80090E802FFF75AFE0546BE
:10080000052D0FD00248006941F6EF71084007E05E
:100810000020024023016745AB89EFCD00F8FF1FA0
:10082000664908612846BDE8F08330B505460424D2
:100830004FF43020FFF73DFE0446042C41D16048C0
:100840005E4988605F4888600846006940F0200083
:1008500008610846006940F0400008614FF430200C
:10086000FFF727FE0446042C22D15448006941F6C4
:10087000DF710840514908610846006940F01000E6
:1008800008611DB100205049088002E0A5204E49B2
:1008900008804FF43020FFF70CFE0446052C10D0E2
:1008A0004648006941F6EF7108404449086108E094
:1008B000052C06D04148006941F6DF7108403F49E8
:1008C0000861204630BDF0B505460E4617460424A3
:1008D0003B483A4988603B488860E002FFF7E9FD01
:1008E0000446042C19D13548006940F01000334902
:1008F000086147F0F800304328433349891C0880D9
:10090000E002FFF7D6FD0446052C06D02B4800690F
:1009100041F6EF710840294908612046F0BD27489B
:10092000C069800870472548006A70470020234945
:10093000096801F0200109B1012000E000207047A2
:1009400029B11E4A126902431C4B1A6104E01B4A7A
:1009500012698243194B1A61704701460020012930
:1009600008D1164AD26902F001020AB1012008E05A
:10097000002006E0114AD2680A400AB1012000E0D6
:10098000002070470D49C860704704200B49C968B2
:1009900001F0010109B101200EE00849C96801F028
:1009A000040109B1022007E00449C96801F01001FF
:1009B00009B1032000E0042070470000002002403D
:1009C00023016745AB89EFCD00F8FF1F10B5044642
:1009D000CC48844208D10121042000F02DFB0021E5
:1009E000042000F029FB46E0C748844208D10121D9
:1009F000082000F021FB0021082000F01DFB3AE058
:100A0000C248844208D10121102000F015FB0021CA
:100A1000102000F011FB2EE0BD48844208D10121D6
:100A2000202000F009FB0021202000F005FB22E03F
:100A3000B848844208D10121402000F0FDFA00218D
:100A4000402000F0F9FA16E0B348844208D10121B1
:100A5000802000F0F1FA0021802000F0EDFA0AE099
:100A6000AE48844207D10121801500F0E5FA00214B
:100A7000A01500F0E1FA10BD10B50121084600F004
:100A8000DBFA0021012000F0D7FA10BD2DE9F0417A
:100A9000024600250026002000230024002791F8AC
:100AA00003C00CF00F0591F803C00CF0100CBCF162
:100AB000000F03D091F802C04CEA050591F800C080
:100AC000BCF1000F31D0146800202BE04FF0010C76
:100AD0000CFA00F3B1F800C00CEA03069E4220D1E4
:100AE00083004FF00F0C0CFA03F7BC4305FA03FC2C
:100AF0004CEA040491F803C0BCF1280F06D14FF072
:100B0000010C0CFA00FCC2F814C00AE091F803C012
:100B1000BCF1480F05D14FF0010C0CFA00FCC2F8F3
:100B200010C0401C0828D1D31460B1F800C0BCF13B
:100B3000FF0F34DD546800202EE000F1080C4FF068
:100B4000010808FA0CF3B1F800C00CEA03069E4253
:100B500021D183004FF00F0C0CFA03F7BC4305FAC8
:100B600003FC4CEA040491F803C0BCF1280F05D142
:100B700000F1080C08FA0CF8C2F8148091F803C0D0
:100B8000BCF1480F07D100F1080C4FF0010808FA3A
:100B90000CF8C2F81080401C0828CED35460BDE881
:100BA000F0814FF6FF710180022181700421C17034
:100BB00070470246002093680B400BB1012000E013
:100BC000002070470146886880B2704702460020C6
:100BD000D3680B400BB1012000E0002070470146B4
:100BE000C86880B2704701617047416170470AB1BF
:100BF000016100E041617047C16070474FF480328D
:100C00000A4382618161826182698269704702461A
:100C10000020434B18684FF68073184040EA0210DA
:100C200008433F4B186070473E49C8617047F0B5B4
:100C30000A46002300240021002500F00046B6F1FA
:100C4000004F02D1364EF16901E0354E7168C0F3B4
:100C5000034583B200F44016B6F5401F08D121F0D9
:100C600070612F4E766826F070662D4F7E6012E020
:100C700000F48016B6F5801F06D1032606FA05F4A7
:100C8000A14341F0706106E0460D360103FA06F615
:100C9000B14341F0706122B1460D360103FA06F608
:100CA000314300F00046B6F1004F02D11C4EF16115
:100CB00001E01B4E7160F0BD30B500228B071C0FA8
:100CC0000F2303FA04F2164B08338C1053F8243028
:100CD0009343134C08348D1044F8253023468C1070
:100CE00053F824308C07240F00FA04F423430C4CEF
:100CF00008348D1044F8253030BD0A49DC310860D5
:100D00007047000000080140000C01400010014045
:100D10000014014000180140001C01400020014067
:100D20000000014000002042DF48006840F0010060
:100D3000DD49086008464068DC490840DA494860F7
:100D400008460068DA490840D74908600846006844
:100D500020F4802008600846406820F4FE004860C7
:100D60004FF41F0088607047CF49096821F4803133
:100D7000CD4A11601146096821F480211160B0F557
:100D8000803F03D0B0F5802F0ED106E0C649096838
:100D900041F48031C44A116007E0C349096841F455
:100DA000A021C14A116000E000BF00BF704710B52C
:100DB00001460022002300204A11012A02D1BA4C28
:100DC000236806E0022A02D1B74C236A01E0B64C40
:100DD000636A01F01F02012494401C400CB1012001
:100DE00000E0002010BD38B5002000900024002550
:100DF00000BF3120FFF7DBFF05460098401C009044
:100E00000098B0F5A06F01D0002DF2D03120FFF78F
:100E1000CEFF08B1012400E00024204638BD014681
:100E20000020A14A106820F0F80040EAC1001060DC
:100E30007047A04908607047024600209A4B5868E6
:100E400020F47C1042EA01031843974B5860704726
:100E500098490866704701460020934A506820F080
:100E600003000843506070478F48406800F00C0052
:100E70007047014600208C4A506820F0F00008437B
:100E80005060704701460020874A506820F4E060B7
:100E900008435060704701460020834A506820F4A0
:100EA000605040EAC1005060704729B17E4A527AD2
:100EB00002437D4B5A7204E07B4A527A82437A4B5A
:100EC0005A7270477B49D83108607047014600204C
:100ED000754A506820F44040084350607047002134
:100EE000714A20321170704A82F82010012802D015
:100EF00004280AD104E001216B4A2032117005E078
:100F00000521694A2032117000E000BF00BF704720
:100F10006949086070476449096A0143624A11627D
:100F20007047654944390860704730B50021002298
:100F3000002400235C4D6D6805F00C0121B10429EB
:100F400005D0082923D105E05C4D056022E05B4D0A
:100F500005601FE0544D6D6805F47012524D6D68C8
:100F600005F48034022505EB92421CB9544D5543DB
:100F700005600BE04C4D6D6805F400351DB1504D1A
:100F80005543056002E04D4D5543056002E04B4D71
:100F9000056000BF00BF444D6D6805F0F001090910
:100FA000484D6B5C0568DD4045603F4D6D6805F45C
:100FB000E061090A434D6B5C4568DD4085603A4D50
:100FC0006D6805F46051C90A3E4D6B5C4568DD40B3
:100FD000C560354D6D6805F44041890B3A4D6B5C39
:100FE000C568B5FBF3F5056130BD29B12E4A5269DC
:100FF00002432D4B5A6104E02B4A526982432A4B2B
:101000005A61704729B1284A92690243264B9A6176
:1010100004E0254A92698243234B9A61704729B1C3
:10102000214AD2690243204BDA6104E01E4AD269A8
:1010300082431D4BDA61704729B11B4AD2680243D3
:10104000194BDA6004E0184AD2688243164BDA6022
:10105000704729B1144A12690243134B1A6104E024
:10106000114A12698243104B1A6170471249403984
:10107000086070470F49C86470470B49C8717047D2
:101080000948406A40F0807007494862704701464D
:101090000020054A92680A400AB1012000E00020C1
:1010A0007047014988727047001002400000FFF845
:1010B000FFFFF6FE000042428004424200127A0026
:1010C00000093D00000000201000002010B504467B
:1010D000FE48844208D10121C014FFF7ADFF002172
:1010E000E014FFF7A9FFC4E0B4F1804F08D101215B
:1010F0000846FFF7AEFF00210120FFF7AAFFB8E086
:10110000F348844208D101210220FFF7A2FF002109
:101110000220FFF79EFFACE0EE48844208D1012197
:101120000420FFF796FF00210420FFF792FFA0E0C4
:10113000E948844208D101210820FFF78AFF0021F5
:101140000820FFF786FF94E0E448844208D101219B
:101150001020FFF77EFF00211020FFF77AFF88E0C4
:10116000DF48844208D101212020FFF772FF0021CF
:101170002020FFF76EFF7CE0DA48844208D101218D
:101180004014FFF759FF00216014FFF755FF70E08E
:10119000D548844209D10121C804FFF74DFF002141
:1011A0004FF40020FFF748FF63E0D048844209D1A4
:1011B00001210805FFF740FF00214FF48010FFF7E1
:1011C0003BFF56E0CA48844209D101214805FFF798
:1011D00033FF00214FF40010FFF72EFF49E0C54810
:1011E000844208D101214020FFF733FF0021402035
:1011F000FFF72FFF3DE0C048844208D10121802045
:10120000FFF727FF00218020FFF723FF31E0BB48D5
:10121000844208D101218015FFF71BFF0021A01592
:10122000FFF717FF25E0B648844209D101210804E1
:10123000FFF702FF00214FF48030FFF7FDFE18E0BA
:10124000B048844209D101214804FFF7F5FE00218E
:101250004FF40030FFF7F0FE0BE0AB48844208D1BA
:1012600001218804FFF7E8FE00214FF48020FFF7FA
:10127000E3FE10BD00220288944B98420ED0994B99
:1012800098420BD0B0F1804F08D0914B984205D0D6
:10129000904B984202D0904B984204D14FF68F73F6
:1012A0001A404B881A438D4B984207D08C4B98427A
:1012B00004D04FF6FF431A40CB881A4302808B8834
:1012C00083850B880385814B98420BD0854B9842D0
:1012D00008D08B4B984205D08A4B984202D08A4B5B
:1012E000984201D10B7A038601238382704770B53F
:1012F000002400220023058C4FF6FE76354005843D
:10130000028C8388048B4FF68F752C40B51E2C40C1
:101310000D882C43751E2A400D892A434D882A4387
:101320006A4DA8420BD06F4DA84208D0744DA84218
:1013300005D0744DA84202D0734DA84213D14FF688
:10134000F7752A404D892A434FF6FB752A408D8850
:101350002A434FF6FF652B404FF6FF552B408D89F2
:101360002B43CD892B4383800483CD8885860284DB
:1013700070BD70B5002400220023058C4FF6EF7677
:1013800035400584028C8388048B48F6FF752C4019
:101390004FF6FF452C400D884FF6FF7606EA0525EF
:1013A0002C434FF6DF752A400D8906EA05152A43BE
:1013B0004D8806EA05152A43444DA84202D0494DFE
:1013C000A8421DD14FF67F752A404D894FF6FF7612
:1013D00006EA05152A434FF6BF752A408D8806EAAE
:1013E00005152A434FF6FF352B404FF2FF752B4072
:1013F0008D8906EA85052B43CD8906EA85052B43B1
:1014000083800483CD880587028470BD70B5002475
:1014100000220023058C4FF6FF6635400584028CC0
:101420008388848B4FF68F752C404FF6FC752C40CB
:101430000D882C434FF6FF552A400D894FF6FF7655
:1014400006EA05252A434D8806EA05252A431F4D4D
:10145000A84202D0234DA8421DD14FF2FF752A4069
:101460004D894FF6FF7606EA05252A434FF6FF35EC
:101470002A408D8806EA05252A434EF6FF752B4043
:101480004DF6FF752B408D8906EA05152B43CD8956
:1014900006EA05152B4383808483CD8885870284E3
:1014A00070BD70B5002200230024058C4EF6FF7637
:1014B00035400584038C8488828B48F6FF752A406A
:1014C0004FF6FF452A400D8820E00000002C014027
:1014D0000004004000080040000C004000100040E4
:1014E0000014004000340140004C01400050014015
:1014F0000054014000180040001C00400020004043
:101500000040014000440140004801404FF6FF7692
:1015100006EA05252A434DF6FF752B400D8906EA9C
:1015200005352B434D8806EA05352B43FA4DA84275
:1015300002D0FA4DA84208D14BF6FF752C408D8998
:101540004FF6FF7606EA85152C4384808283CD888A
:10155000A0F84050038470BD828B4FF2FF331A40D5
:101560008283828B4FF6FF7303EA01231A4382833F
:101570007047F0B50C461546002200210026078C66
:101580004EF6FF7C07EA0C070784828B018C4FF62E
:10159000FF7707EA043640F6FF473A404FF6FF77F9
:1015A00007EA05273A434FF6FF7707EA03373A433E
:1015B000D94FB8420ED0D94FB8420BD0B0F1804FBE
:1015C00008D0D74FB84205D0D64FB84202D0D64F38
:1015D000B84206D14DF6FF77394046F4805739437B
:1015E00005E047F6FF57394044F48057394382837A
:1015F0000184F0BD828B4FF6F3731A408283828B95
:101600000A4382837047F0B50C461546002200213C
:101610000026078C4FF6FF6C07EA0C070784828BC5
:10162000018C4FF6FF7707EA04264FF60C773A4015
:101630004FF6FF7707EA03172F433A43B64FB842F6
:101640000ED0B64FB8420BD0B0F1804F08D0B44F97
:10165000B84205D0B34FB84202D0B34FB84206D11A
:101660004FF6FF57394046F48077394305E04FF293
:10167000FF57394044F48077394382830184F0BDB9
:10168000028B4FF2FF331A400283028B4FF6FF7337
:1016900003EA01231A4302837047F0B50C4615464E
:1016A000002200210026078C4FF6EF7C07EA0C078A
:1016B0000784028B018C4FF6FF7707EA041640F689
:1016C000FF473A404FF6FF7707EA03373A434FF6B2
:1016D000FF7707EA05273A438F4FB8420ED08F4F66
:1016E000B8420BD0B0F1804F08D08D4FB84205D032
:1016F0008C4FB84202D08C4FB84206D14FF6DF77FC
:10170000394046F01007394305E04FF65F7739401E
:1017100044F01007394302830184F0BD028B4FF679
:10172000F3731A400283028B0A4302837047F0B5B9
:101730000C46154600220021068C4FF6FE773E40EF
:101740000684028B018C4FF60C7632407E1C06EA32
:1017500003162E433243704EB0420ED06F4EB0424D
:101760000BD0B0F1804F08D06D4EB04205D06D4E19
:10177000B04202D06C4EB04206D14FF6FD763140F9
:1017800044F00106314305E04FF6F576314044F070
:101790000106314302830184F0BD70B505460C4655
:1017A0005D4885420ED05D4885420BD0B5F1804F33
:1017B00008D05B48854205D05A48854202D05A4835
:1017C000854200D100E000BF208850B92389A2885B
:1017D00061882846FFF7ABFFE1882846FFF79EFFA8
:1017E00025E0208804280AD12389A2886188284618
:1017F000FFF753FFE1882846FFF742FF17E02088F4
:1018000008280AD12389A28861882846FFF7FBFEB1
:10181000E1882846FFF7EEFE09E02389A288618867
:101820002846FFF7A6FEE1882846FFF795FE70BD23
:101830002DE9F04105460C4600260127608808B9CD
:10184000022600E00026A088012801D1022700E03E
:1018500001272088A0B92389A28861882846FFF73C
:1018600066FFE1882846FFF759FF23893A4631464B
:101870002846FFF712FFE1882846FFF701FF13E033
:101880002389A28861882846FFF707FFE188284658
:10189000FFF7F6FE23893A4631462846FFF747FF11
:1018A000E1882846FFF73AFFBDE8F0810A884B88B7
:1018B0001A438B881A43CB881A430B891A434B89E6
:1018C0001A438B891A43A0F8442070474FF6FF71E2
:1018D000818000210180C180418001727047002118
:1018E000018041808180C180018141818181C181EC
:1018F0007047002101804180012181800021C18049
:10190000018170470021018041808180C180018177
:101910004181818170470000002C0140003401406A
:101920000004004000080040000C004021B1028883
:1019300042F00102028004E002884FF6FE731A4072
:101940000280704731B1B0F8442042F40042A0F860
:10195000442005E0B0F84420C2F30E02A0F8442071
:1019600070471AB183890B43838102E083898B43DB
:10197000838170478182704741EA0203A0F84830B2
:1019800070471AB183890B43838102E083898B43BB
:101990008381704701894FF6F872114001817047C9
:1019A0000A46002101894FF68F73194011430181C6
:1019B000704730B504460D4629462046FFF7F0FF34
:1019C000208940F00700208130BD2DE9F041044618
:1019D0000D4616461F46602D06D13B460122314674
:1019E0002046FFF75AFE05E03B46012231462046DD
:1019F000FFF79DFE29462046FFF7D2FF208940F0E1
:101A000007002081BDE8F08130B50C460021018936
:101A1000C9B24FF6FF7505EA03251543254329434F
:101A2000018130BD2DE9F04105460E461746984626
:101A3000002443463A4631462846FFF7E5FF2C8905
:101A40004FF6F870044044F007044FF68F700440DE
:101A500044F070042C81BDE8F081F0B504460D46D9
:101A600016461F463B46324629462046FFF7CCFF26
:101A7000208940F480402081F0BD0185828270473A
:101A80000A46002101884FF68F73194011430180E7
:101A90007047F0B50C4615461E4600210022002373
:101AA0000189028B038C4FF6F877394021434FF6BA
:101AB000FC473A4040F201173A434FF6DD773B408E
:101AC0004FF6FF7707EA06172F433B430181028356
:101AD0000384F0BD0A460021018B4FF68F73194035
:101AE0001143018370470A460021018B48F6FF73BA
:101AF00019404FF6FF7303EA02231943018370472D
:101B00000A460021818B4FF68F7319401143818360
:101B100070470A460021818B48F6FF7319404FF643
:101B2000FF7303EA022319438183704721B10288BE
:101B300042F08002028004E002884FF67F731A4070
:101B40000280704721B1828842F00402828004E062
:101B500082884FF6FB731A408280704721B18288D9
:101B600042F00802828004E082884FF6F7731A4040
:101B70008280704721B1828842F00102828004E0B5
:101B800082884FF6FE731A40828070470A46002111
:101B9000018B4FF6F77319401143018370470A46D2
:101BA0000021018B4FF2FF7319404FF6FF7303EAD8
:101BB00002231943018370470A460021818B4FF6A7
:101BC000F77319401143818370470A460021818BC6
:101BD0004FF2FF7319404FF6FF7303EA02231943D4
:101BE000818370470A460021018B4FF6FB73194031
:101BF0001143018370470A460021018B4FF6FF33E2
:101C000019404FF6FF7303EA02231943018370471B
:101C10000A460021818B4FF6FB73194011438183E3
:101C200070470A460021818B4FF6FF3319404FF66B
:101C3000FF7303EA02231943818370470A46002198
:101C4000018B4FF67F7319401143018370470A4699
:101C50000021018BC1F30E014FF6FF7303EA02234B
:101C60001943018370470A460021818B4FF67F7329
:101C700019401143818370470A460021818BC1F3CB
:101C80000E014FF6FF7303EA022319438183704765
:101C90000A460021018C4FF6FD731940114301845F
:101CA00070470A460021018C4FF6F7731940114323
:101CB000018470470A460021018C4FF6DF731940FA
:101CC0004FF6FF7303EA02131943018470470A4673
:101CD0000021018C4FF67F7319404FF6FF7303EA22
:101CE00002131943018470470A460021018C4FF604
:101CF000FF5319404FF6FF7303EA0223194301848F
:101D000070470A460021018C4FF2FF7319404FF6CD
:101D1000FF7303EA02231943018470470A46002136
:101D2000018C4DF6FF7319404FF6FF7303EA02333F
:101D300019430184704730B5002301248C40A3B2BD
:101D4000048C9C430484048C02FA01F5ADB22C434C
:101D5000048430BD30B5002304248C40A3B2048C2D
:101D60009C430484048C02FA01F5ADB22C43048434
:101D700030BD70B5034600200024184618300125F8
:101D80008D40ACB21D8CA5431D8409B1082909D131
:101D900000EB6100056825F07005056005681543D6
:101DA00005600EE00D1FC5F34E052844056825F4B7
:101DB000E045056005684FF6FF7606EA02263543E2
:101DC000056070BD21B1028842F00202028004E089
:101DD00002884FF6FD731A400280704721B10288D5
:101DE00042F00402028004E002884FF6FB731A40BE
:101DF0000280704721B1828842F08002828004E034
:101E000082884FF67F731A408280704702884FF6AF
:101E1000F7731A40028002880A4302807047828862
:101E20004FF68F731A40828082880A4382807047FF
:101E300002894FF6F8731A40028102890A4302812F
:101E4000704702894FF67F731A40028102890A4364
:101E50000281704781847047818570478186704711
:101E60000187704781877047A0F84010704702884B
:101E70004FF6FF431A40028002880A4302807047EF
:101E80000146888E70470146088F70470146888F4B
:101E900070470146B1F8400070470146888C704792
:101EA0000146088D704702460020138A0B400BB193
:101EB000012000E000207047CA430282704730B51D
:101EC0000246002000230024158A05EA01039589B3
:101ED00005EA010413B10CB1012000E0002030BD7F
:101EE000CA430282704700F097F800BFFEE7000087
:101EF00010B5002807DA0A07140E4D4A00F00F0348
:101F00001B1FD45403E00A07130E4A4A135410BD92
:101F100010B5FEF709FF4FF48030FEF725FFFEF7FE
:101F200062FF0446012C24D11020FEF785FA02201E
:101F3000FEF76EFA0020FEF79CFF0020FEF7ABFFD5
:101F4000A002FEF79FFF4FF4E0112004FEF774FF9C
:101F50000120FEF77DFF00BF3920FEF728FF002893
:101F6000FAD00220FEF777FF00BFFEF77DFF0828BA
:101F7000FBD10120FFF77EF82F48FEF7D6FF0121A5
:101F80000846FFF73FF801213C20FFF73BF810BD62
:101F9000704710B54FF4A060FEF73EF910BD7047D2
:101FA00001B526490098086000BF24480068002851
:101FB000FBD108BD2148006820B120480068401EC0
:101FC0001E490860704710B50521881FFFF790FF74
:101FD000194840684FF47A71B0FBF1F4601EB0F11B
:101FE000807F01D301200FE0601E4FF0E0214861A7
:101FF0000F214FF0FF30FFF77BFF00204FF0E02173
:10200000886107200861002008B100BFFEE710BD0D
:1020100010B5FFF7D8FF10BD10B5FFF779FFFFF738
:10202000B7FFFFF7B6FFFFF7BAFFFFF7F1FF10BDED
:1020300018ED00E000E400E0300000201400002073
:10204000704700BFFEE700BFFEE700BFFEE700BF2E
:10205000FEE770477047704710B5FFF7ABFF10BD44
:1020600010B500F09FF910BD10B500F0AEF910BD2D
:102070000CB50020019000906C48006840F480305E
:102080006A49086000BF6948006800F400300090A9
:102090000198401C0190009818B90198B0F5A06F04
:1020A000F1D16248006800F4003010B101200090C6
:1020B00001E0002000900098012843D15C480068AE
:1020C00040F010005A4908600846006820F00300FC
:1020D00008600846006840F0020008605348406805
:1020E000524948600846406848600846406840F4E5
:1020F000806048600846406820F47C1048600846CC
:10210000406840F4E81048600846006840F080707D
:10211000086000BF4548006800F000700028F9D052
:102120004248406820F00300404948600846406843
:1021300040F00200486000BF3C48406800F00C00DE
:102140000828F9D10CBD10B5FFF792FF10BD10B5EE
:102150003648006840F0010034490860084640688D
:10216000344908403149486008460068324908400F
:102170002E4908600846006820F480200860084660
:10218000406820F4FE0048604FF41F008860FFF7AD
:10219000DAFF4FF000602949086010BD10B500213A
:1021A00000200022214B5B6803F00C0121B10429BF
:1021B00006D0082928D107E0214B224C236027E0D4
:1021C0001F4B204C236023E0184B5B6803F4701016
:1021D000164B5B6803F48032022303EB904022B974
:1021E000194B4343174C23600DE0104B5B6803F41D
:1021F000003323B1144B4343124C236003E0104BD4
:102200004343104C236003E00D4B0E4C236000BF92
:1022100000BF064B5B68C3F303130C4CE15C094B36
:102220001B68CB40074C236010BD0000001002402B
:10223000002002400000FFF8FFFFF6FE08ED00E07E
:1022400000127A001800002000093D001C00002048
:1022500010B54823032201216B4800F0E3F8102356
:1022600003224021684800F0DDF810230322190101
:10227000654800F0D7F8102303221902634800F0E4
:10228000D1F810230322D901614800F0CBF81023C4
:10229000032201215E4800F0C5F8482303220221F1
:1022A000594800F0BFF8102303228021564800F05F
:1022B000B9F8102303225901534800F0B3F8102352
:1022C00003221902504800F0ADF81023032219022E
:1022D0004F4800F0A7F81023032202214C4800F0D9
:1022E000A1F810BD08B54BA0006800906B46022213
:1022F00049480188500700F0A5F808BD10B5002135
:102300000220FEF7D9FC01210220FEF7D5FC0123B3
:102310000C220021084600F0DBF901230C220021E9
:10232000184600F0D5F903221146062000F03DF9C9
:1023300003221146072000F038F910BD10B5042320
:1023400003224021324800F06DF80423032280214B
:102350002F4800F067F80423032240212B4800F0A7
:1023600061F8042303228021284800F05BF810BDA7
:1023700010B5032202211E2000F017F91E224FF48F
:10238000C371264800F023F910BD10B503220221C5
:102390001E2000F00AF91E224FF4C371204800F0FD
:1023A00016F910BD10B5202401211C48FFF787FD48
:1023B00050B10120C0EB840081B21848FFF74AFDFC
:1023C00001211648FFF78CFD10BD10B52024012116
:1023D0001348FFF774FD50B10120C0EB840081B2B7
:1023E0000F48FFF737FD01210D48FFF779FD10BDBC
:1023F00010B5FFF72DFFFFF775FFFFF79FFFFFF702
:10240000B7FFFFF7C2FF10BD00100140000C0140F4
:1024100000080140010200002C00002000040040E0
:1024200000080040F8B507460C4615461E46ADF8B4
:1024300000408DF802508DF8036069463846FEF77B
:1024400025FBF8BD2DE9F0438DB004460E46174636
:1024500098464FF000092046FEF738FEAA4884420D
:1024600006D10121C014FEF7CDFDDDF8109030E05B
:10247000B4F1804F06D101210846FEF7D0FDDDF80A
:102480000C9026E0A148844206D101210220FEF7EB
:10249000C6FDDDF80C901CE09D48844206D1012168
:1024A0000420FEF7BCFDDDF80C9012E09948844250
:1024B00006D101210820FEF7B2FDDDF80C9008E0FE
:1024C0009548844205D101214014FEF79BFDDDF8BB
:1024D00010909248B9FBF0F9A9F1010080B2ADF873
:1024E00028000020ADF82A00701E80B2ADF82C0044
:1024F0000020ADF82E008DF830000AA92046FEF726
:10250000B9FE6020ADF818000120ADF81A00ADF852
:102510001E600020ADF820004FF48070ADF824005C
:10252000002531E018F80500012806D002280DD05A
:10253000032814D0042824D11AE006A92046FEF767
:10254000D6FE08212046FFF721FB1AE006A9204607
:10255000FEF70FFF08212046FFF721FB11E006A937
:102560002046FEF753FF08212046FFF725FB08E031
:1025700006A92046FEF795FF08212046FFF725FB18
:1025800000BF00BF681CC5B2BD42CBDB01212046A5
:10259000FFF7CCFA01212046FFF7C8F901212046B8
:1025A000FFF7D0F90DB0BDE8F083F8B506460C464C
:1025B0001546F0B28DF800008DF801408DF80250FC
:1025C00001208DF803006846FDF72BFEF8BD2DE9CC
:1025D000F04F8BB004468A4693464FF000092046E0
:1025E000FEF774FD4848844204D10121C014FEF76F
:1025F00009FD26E0B4F1804F04D101210846FEF721
:102600000EFD1EE04148844204D101210220FEF764
:1026100006FD16E03E48844204D101210420FEF765
:10262000FEFC0EE03B48844204D101210820FEF765
:10263000F6FC06E03848844203D101214014FEF73D
:10264000E1FC584600F02DFA05460E46504600F0D3
:1026500028FA07462A46334600F036FA0022304B65
:10266000CDE9000100F098F8CDE9020100F0ECF9A5
:102670001FFA80F90121C1EBC90080B2ADF820003A
:1026800007A92046FEF7F6FD0A231A460321204635
:10269000FFF7FFF90620ADF8180004A92046FFF760
:1026A0007CF801212046FFF707FC01221146204655
:1026B000FFF757F90120C0EB890081B22046FFF7F0
:1026C000C9FB01212046FFF731F90BB0BDE8F08FBF
:1026D0002DE9FC4104460D4616461F4600948DF830
:1026E00004508DF805608DF806706846FDF710FE01
:1026F000BDE8FC810146088800F0100008B1012007
:1027000070470020FCE70000002C0140000400405E
:1027100000080040000C00400034014040420F001F
:1027200000807640704770477047754600F028F883
:10273000AE4605006946534620F00700854618B0AE
:1027400020B5FDF755FDBDE820404FF000064FF0E5
:1027500000074FF000084FF0000B21F00701AC46D6
:10276000ACE8C009ACE8C009ACE8C009ACE8C009F5
:102770008D4670470446AFF300802046FDF71FFDED
:10278000004870474400002001491820ABBEFEE716
:1027900026000200704700002DE9C04130B4DFF888
:1027A000A0C23CEA111418BF3CEA131400F0EC80FC
:1027B00081EA03051CEA111444EAD57418BF1CEA27
:1027C000131500F0C780A4EB05044FF0004545EA5F
:1027D000C12145EAC32341EA505143EA525304F16F
:1027E0007F74994204F500344FEAC0204FEAC222B8
:1027F00008BF904200F09C804FEA13650FF240162C
:10280000765D4FEA134506FB05F7C7F1807706FBB7
:1028100007F74FEAD737A7FB03687642C8F5803839
:10282000A7FB06CE38BFA8F1010807FB08E64FF06A
:10283000000EA6FB028CE6FB03CEDCF1000CCEF111
:10284000004E38BFAEF1010EA6FB0C584FF000074A
:102850004FF00005E6FB0E87A1FB08C6A0FB07CEE4
:1028600016EB0E0645F10005E1FB076515F1E04E9C
:102870007EBFA4F580345FEA46066D4116F18007FD
:1028800045F100054FEA17274FEA066647EA056754
:10289000A6F1DE46B6F1805F4FEA15251FD938460E
:1028A00024F0010C05EBC471BCF1FE6F01EB0C11BF
:1028B00002D8F0BCBDE8008124425CBF01F5801E57
:1028C0009EEAC47F02D4F0BCBDE80081244238D423
:1028D000F0BCA1F1C041BDE8004100F0EDB94FEA04
:1028E000D22242EA43524FEAD323A7FB02864FEAA1
:1028F000D02040EA415007FB03661EEA0E0F4FEA64
:10290000D12105FB026658BFA6EB0056B6EB005678
:102910004FEA520E4EEAC37E18EB0E0E56EB530EE4
:10292000BDD518EB02085E417F1C55F10005B6E7E6
:102930004FF480154FF000074FF000064FF00008ED
:10294000ADE7F0BC4FF0000001F1C04101F00041E3
:10295000BDE8008111EA0C1F0CEA131500D00CE051
:1029600013EA0C1F00F025804FF00000F0BC81EA54
:10297000030101F00041BDE80081F0BCBDE8004169
:1029800081EA030100F098B9F0BCBDE8004170B5E0
:1029900000F044F9097EFC3E00F007B881EA03012B
:1029A0004FF0000001F00041704781EA030100F0A0
:1029B00083B9F0BCBDE800414FF0000021497047E9
:1029C000FFFDFBF9F7F5F4F2F0EEEDEBE9E8E6E4F4
:1029D000E3E1E0DEDDDBDAD8D7D5D4D3D1D0CFCD7B
:1029E000CCCBCAC8C7C6C5C4C2C1C0BFBEBDBCBBB4
:1029F000BAB9B8B7B6B5B4B3B2B1B0AFAEADACABAF
:102A0000AAA9A8A8A7A6A5A4A3A3A2A1A09F9F9E88
:102A10009D9C9C9B9A99999897979695959493933A
:102A2000929191908F8F8E8E8D8C8C8B8B8A8989D1
:102A30008888878786858584848383828281818054
:102A40000000FF070000F87F4FEA1153A3F58063F1
:102A5000D3F11E03A8BFD3F1200C08DB4FF00042D6
:102A600042EAC12252EA505232FA03F07047094258
:102A70000BD4102BC4BF0020704703F5787CBCF149
:102A8000FF3F05D04FF0FF3070474FF00000704718
:102A900070B500F0C3F800BF499224800020704751
:102AA000F0E7B0FA80F310FA03F10AD0C3F11D0386
:102AB00003F580634FEA41504FEA035202EBD12104
:102AC00070474FF000007047DFF848C170B51CEA4E
:102AD000111E1EBF1CEA13159EEA0C0F95EA0C0F7F
:102AE00000F06F8081EA030423EA4C134EEAD47E9F
:102AF00021EA4C1141F4801143F48013AE44A1FB50
:102B0000024CA0FB0365AEF17F7E361955EB0C0538
:102B1000A1FB034C4CF10003A0FB021C16EB0C06BE
:102B2000654153F10003094218BF46F0010613F452
:102B3000007F0BD14FEA03314FEA0530340341EAFD
:102B4000155140EA16506FF003020AE04FEAC32124
:102B50004FEAC520F40241EA555140EA56506FF061
:102B6000020202EB2E4201EB025585EACE710AD039
:102B70005FEA440C18BF24F0004450F1000041F11A
:102B8000000120EAD47040F2FE7C624500D270BDA4
:102B9000A84214BF4FF080444FF04044002E08BFBD
:102BA0000024BEF1806FA8BFA1F1C041BDE8704014
:102BB00080F282804FF0000001F1C04101F000413D
:102BC00070479EEA0C0F0CEA131518BF95EA0C0F1C
:102BD00006D04FF0000081EA030E0EF0004170BDF8
:102BE00000F01CF88900013E00F007B800F009B8B9
:102BF0004FEA430C5FEA5C5C08D081EA030100F015
:102C00005BB84FEA410C5FEA5C5CF6D14FF0000024
:102C1000014970470000FF070000F87F0EF1020E27
:102C20002EF0030E5EF8046B364205D4012A43EB06
:102C3000030515F5001F12D8012841EB010C1CF506
:102C4000001F0CD80ED14FEAD17C15F5001F0CEBFC
:102C50004C0C0CF1020C08BF4CEBD37C04E04FF0A1
:102C6000080C01E04FEAD37C0CEB4C0526FA05F684
:102C700006F00706B6F1040C06D20EEB860CBDE892
:102C800070404CF0010C6047DFE80CF0090B0202C9
:102C90004FF000414FF00000A1F5002170BD194632
:102CA0001046012851EB010418BFD4F5001484BF6D
:102CB000002001F0004170BD0808A0F500114FEAA6
:102CC00031017047E42C00080000002030000000B3
:102CD0006C010008142D0008300000207806000068
:102CE000880100080000000001020304010203043F
:102CF00006070809020406080000000000A24A04B2
:102D0000000000000000000001020304060708099B
:042D1000E8030000D4
:0400000508000131BD
:00000001FF
